:020000040800F2
:10000000009000205D0A0008050A0008070A0008A1
:1000100000000000000000000000000000000000E0
:10002000000000000000000000000000090A0008B5
:1000300000000000000000000B0A00080D0A000884
:10004000AD0A000800000000AD0A0008AD0A000873
:10005000AD0A0008AD0A0008AD0A0008AD0A0008A4
:1000600000000000AD0A0008AD0A0008AD0A000853
:10007000AD0A0008AD0A0008AD0A00080000000043
:10008000AD0A00085DDD0108AD0A0008AD0A0008F0
:10009000AD0A0008AD0A0008AD0A0008AD0A000864
:1000A000AD0A00083DDD01084DDD0108AD0A00087C
:0800B000AD0A0008AD0A0008CA
:1000B800002243088B4274D303098B425FD3030A9F
:1000C8008B4244D3030B8B4228D3030C8B420DD3B2
:1000D800FF22090212BA030C8B4202D31212090240
:1000E80065D0030B8B4219D300E0090AC30B8B427E
:1000F80001D3CB03C01A5241830B8B4201D38B032C
:10010800C01A5241430B8B4201D34B03C01A5241D0
:10011800030B8B4201D30B03C01A5241C30A8B4213
:1001280001D3CB02C01A5241830A8B4201D38B02FE
:10013800C01A5241430A8B4201D34B02C01A5241A2
:10014800030A8B4201D30B02C01A5241CDD2C30914
:100158008B4201D3CB01C01A524183098B4201D390
:100168008B01C01A524143098B4201D34B01C01A7B
:10017800524103098B4201D30B01C01A5241C308F3
:100188008B4201D3CB00C01A524183088B4201D362
:100198008B00C01A524143088B4201D34B00C01A4E
:1001A8005241411A00D20146524110467047FFE7BA
:1001B80001B5002000F0F0F802BDC0460029F7D0D4
:1001C80076E7704703460B437FD4002243088B42EF
:1001D80074D303098B425FD3030A8B4244D3030BC6
:1001E8008B4228D3030C8B420DD3FF22090212BA8B
:1001F800030C8B4202D31212090265D0030B8B4207
:1002080019D300E0090AC30B8B4201D3CB03C01AF0
:100218005241830B8B4201D38B03C01A5241430BCB
:100228008B4201D34B03C01A5241030B8B4201D3BB
:100238000B03C01A5241C30A8B4201D3CB02C01A26
:100248005241830A8B4201D38B02C01A5241430A9E
:100258008B4201D34B02C01A5241030A8B4201D38D
:100268000B02C01A5241CDD2C3098B4201D3CB0134
:10027800C01A524183098B4201D38B01C01A5241E3
:1002880043098B4201D34B01C01A524103098B42E7
:1002980001D30B01C01A5241C3088B4201D3CB00D2
:1002A800C01A524183088B4201D38B00C01A5241B5
:1002B80043088B4201D34B00C01A5241411A00D265
:1002C80001465241104670475DE0CA0F00D04942CE
:1002D800031000D34042534000229C4603098B423E
:1002E8002DD3030A8B4212D3FC22890112BA030AC6
:1002F8008B420CD3890192118B4208D38901921148
:100308008B4204D389013AD0921100E08909C309CC
:100318008B4201D3CB01C01A524183098B4201D3CE
:100328008B01C01A524143098B4201D34B01C01AB9
:10033800524103098B4201D30B01C01A5241C30831
:100348008B4201D3CB00C01A524183088B4201D3A0
:100358008B00C01A5241D9D243088B4201D34B00BB
:10036800C01A5241411A00D20146634652415B10FD
:10037800104601D34042002B00D5494270476346DE
:100388005B1000D3404201B5002000F005F802BD23
:100398000029F8D016E770477047C0461C21012392
:1003A8001B04984201D3000C10391B0A984201D350
:1003B800000A08391B09984201D30009043902A22E
:1003C800105C40187047C046040302020101010195
:1003D8000000000000000000002B11D1002A0FD1FE
:1003E800002900D1002802D00021C943080007B421
:1003F800024802A14018029003BDC0469DFFFFFFBE
:1004080003B4684601B502981CF0A6F8019B9E4605
:1004180002B00CBC7047C04610B5002903D1FFF7E5
:10042800BDFF203002E00800FFF7B8FF10BDC0464E
:10043800414208401C2101231B04984201D3000CAF
:1004480010391B0A984201D3000A08391B0998423F
:1004580001D30009043902A2105C401A7047C04653
:100468001B1C1D1D1E1E1E1E1F1F1F1F1F1F1F1FA3
:1004780002780B78002A03D0013001319A42F7D074
:10048800D01A70470023C25C0133002AFBD1581EE2
:100498007047000003B47146490840004900095EEE
:1004A80049008E4403BC70470448054B10B583428D
:1004B80003D0044B002B00D0984710BDF800002053
:1004C800F80000200000000006480749091A8B10B0
:1004D800C90FC91810B5491003D0044B002B00D020
:1004E800984710BDF8000020F80000200000000028
:1004F80010B5074C2378002B09D1FFF7D5FF054B22
:10050800002B02D0044800E000BF0123237010BD77
:100518001C0400200000000014CE0108054B10B593
:10052800002B03D00449054800E000BFFFF7CCFFCB
:1005380010BDC046000000002004002014CE0108B1
:1005480003008218934200D1704719700133F9E70C
:1005580070B500260C4C0D4D641BA410A64209D1A1
:1005680000261CF053FC0A4C0A4D641BA410A6423A
:1005780005D170BDB300EB5898470136EEE7B300DC
:10058800EB5898470136F2E794F2010894F2010813
:1005980098F2010894F201087047704770B50F4E41
:1005A8000D0031680400002902D100F0A9F830607C
:1005B8002900200000F0A4F8431C03D101256D4256
:1005C800280070BD0323C51C9D43A842F8D0291AF2
:1005D800200000F095F80130F2D1EFE77405002013
:1005E800F7B50322CB1C9343083305001F000C2BDF
:1005F80034D20C27B94233D8280000F071F8374EAE
:1006080033681C00002C2FD139002800FFF7C6FFE3
:100618000400431C5FD134680094009B002B4AD12E
:10062800002C52D023682800E3180099019300F0A9
:1006380067F8019B834248D123682800FF1A3900D4
:10064800FFF7ACFF013040D02368DB192360336823
:100658005A68002A33D1009B336019E0002BC9DAAD
:100668000C232B600020FEBD2168C91B20D40B2958
:100678000AD9E2192760A34204D132606368116085
:10068800536005E05A60F9E76268A3420ED1326010
:10069800280000F02DF8200007220B30231D90437E
:1006A800C21A9842DFD01B1AA350DCE75A60EFE762
:1006B80023006468A6E7009C63680093ADE71A000E
:1006C8005B68A342FBD10023DAE70C2328002B60E8
:1006D80000F00EF8C6E70760DAE7C04678050020A4
:1006E80010B50248FFF758FF10BDC046700500203E
:1006F80010B50248FFF751FF10BDC0467005002035
:10070800002370B5064D040008002B6000F0CCF9FA
:10071800431C03D12B68002B00D0236070BDC0465A
:100728007C05002070B505000C1E10D0043C236821
:10073800002B00DAE4182800FFF7D2FF1D4A1368DF
:10074800002B05D1636014602800FFF7D1FF70BD4E
:10075800A34208D9206821188B42F3D119685B6835
:1007680009182160EEE71A005B68002B01D0A3424C
:10077800F9D911685018A0420BD1206809185018EF
:1007880011608342E0D118685B68411811605360BA
:10079800DAE7A04202D90C232B60D5E7206821189C
:1007A8008B4203D119685B68091821606360546043
:1007B800CAE7C04678050020F8B5DE4657464E46DB
:1007C8004546E0B507008A46914698460AAB1C782C
:1007D8000B9D43049B46460030001CF021FC701C16
:1007E8001CF01EFC1C4E8022520000213000FFF736
:1007F800A7FE534633704B4673704346B370F4708C
:100808000422594630001CF071FD43465C436400E5
:1008180000260DE07902891901310902802252006F
:1008280028001CF063FD01360135FF35013CFF3C13
:10083800002C0BD080235B009C42EBD879028919ED
:1008480001310902220028001CF050FDF0BCBB4613
:10085800B246A946A046F8BD8005002000B583B081
:10086800054B019318230093113B002200212920F6
:10087800FFF7A2FF03B000BD50E2010872B6FEE721
:1008880010B592B005AC342200212000FFF758FEC5
:100898001022002101A8FFF753FE8020800000F0FD
:1008A800FDFE02230593802252000892002209923D
:1008B80040210A910C930D930E9206330F938023D7
:1008C8009B02109380239B051193200000F010FFDA
:1008D80000280ED101A807230193053B436000239C
:1008E8008360C360022101F0B5F9002803D112B07A
:1008F80010BDFFF7C3FFFFF7C1FF000010B582B0BE
:1009080000F006FDFFF7BCFF00F0D6F82D4800F018
:1009180011F91DF057F91DF0C3F91DF0E5F92A4842
:1009280000F008F91CF061FE284800F003F91CF0FB
:10093800B9FB002821D02649264800F0FBF81CF016
:10094800FDFA254800F0F6F8244800F0F3F8FFF720
:1009580085FF234800F0EEF83C201CF0DDFD21481F
:100968003C2100F0E7F806F0D9F800F04FF900F064
:1009780083FC1D4800F0DEF806E01C49DCE7200097
:1009880000F038F917F094FE1CF022FB184C0123F4
:100998000093002300227F2120001CF0B5FA227862
:1009A800144B1C78141B64B21A700221124800F010
:1009B80067FE030042425041C1B2002CDFD1002B38
:1009C800E0D1DCE778E0010898E00108B4E001082C
:1009D8006CE00108CCE00108E4E0010800E101084E
:1009E8002CE1010844E101085CE1010870E001081C
:1009F8006D0000206C00002000140050FEE7FEE7A8
:100A08007047704710B500F097FC10BD00B583B073
:100A18000B4B196C012211431964196C0A4000929E
:100A2800009ADA6B802149050A43DA63DB6B0B40D5
:100A38000193019BC020C00000F0B2FC03B000BDD0
:100A480000100240024B802212059A607047C0468F
:100A580000ED00E00D488546FFF7F4FF0C480D490E
:100A68000D4A002302E0D458C4500433C4188C4201
:100A7800F9D30A4A0A4C002301E013600432A24267
:100A8800FBD3FFF765FDFFF739FFFEE70090002075
:100A980000000020F80000209CF20108F800002067
:100AA80020360020FEE700000300024A1068C31841
:100AB800136070477400002030B589B0194BDA6BA9
:100AC8008021C9020A43DA63DA6B0A400192019A6B
:100AD8005A6B02252A435A635B6B2B400293029B95
:100AE80003AC142200212000FFF72AFDC0239B003D
:100AF800039304950423079321000B4800F0FCFCA2
:100B08000A480B4B0360E1235B02436000238360C8
:100B1800C36003610C2242618361C36102F0A8FDD6
:100B280009B030BD001002400004005080060020CB
:100B3800004800400FB410B5C2B044AB04CB0193D9
:100B48008021490002A81BF0FFFD041E05DC2000DF
:100B580042B010BC08BC04B0184782B202486423F3
:100B680002A902F0C5FCF2E780060020084B00222B
:100B78009A568A8100221A70064B1B78002B04D0E3
:100B880001238B73034B1A70704700238B73FBE7A9
:100B98001507002014070020F0B5CE46474680B55B
:100BA80085B081460C0090468A880988551AADB2EE
:100BB8000135ADB2E0886788C61BB6B20136B6B259
:100BC80002AB19805F809A80D880029803991CF044
:100BD80087FF618820884346009333002A001CF071
:100BE800EDFC484615F0AEF905B0C0BCB946B046B4
:100BF800F0BD0000034A13781B181370024B1970DC
:100C08007047C046150700201407002070B59623CA
:100C18001249134D1B010022280015F0B1F8114CA0
:100C2800200015F07FF8F023238063800E4B63616A
:100C3800E560237C022293432374200015F0AEF86C
:100C48000A4C200015F087F904232370084B6360D1
:100C5800200015F095F9074B186070BDA407002017
:100C68008807002038070020A10B0008180700207B
:100C7800750B00081007002030B583B003F08AF820
:100C8800072801D003B030BD124B186803F002FAF0
:100C980000240CE00F4B1D680F4B186821000AF068
:100CA800FFFA0100280003F0B0FA0134E4B2042C82
:100CB800F0D90A4B1978084B18680AF0F1FA03F0D2
:100CC80026FB074B186800230093C822062102F070
:100CD800BBFDD7E77C1A0020781A0020641A002090
:100CE800841A002030B58BB00F4B1B780F4D286845
:100CF8000F4C1B01E418617AA27A19F075F928687B
:100D0800217A012219F0EEF8237A0A4A02ADE16845
:100D180000912021280017F0F1F9074B18682900E5
:100D280019F016FE0BB030BD641A0020701A0020AE
:100D38007800002084E101086C1A0020F0B583B027
:100D4800040003F027F80600200003F01FF8050050
:100D5800072E2ED003B0F0BD1C4B1C701C4C1B4E34
:100D680033781B0119591B4B186819F0F1FDFFF76F
:100D7800B9FF194D286803F08DF9184F39682868AC
:100D880003F043FA164B1968286803F03EFA3868EE
:100D980003F0BDFA134B186800230093C8220521FD
:100DA80002F052FD33781B0119590F48FFF7C2FEB4
:100DB800D0E70024042CD1D80C4B186821000AF085
:100DC8006FFA8542C8D00134E4B2F3E7641A002010
:100DD80078000020741A00207C1A0020701A002065
:100DE800681A0020801A00208CE10108781A002077
:100DF80070B504000D0016000AF0D7F9320029007A
:100E080020000AF0D9F93200290020000AF0BFF9C1
:100E18003200290020000AF0C1F970BDF0B5D646AD
:100E28004F464646C0B584B0002005F0A5FE8B4D60
:100E3800286000228A4B191C0AF0CCF92868002285
:100E4800FF210AF0CEF9286819F0B0F904008549A5
:100E580019F07EFD0022844B191C20000AF0D6F9F7
:100E6800082300220221200006F0A0FE286805F0D1
:100E780083FE04000122C82106F042FE1C23002242
:100E88000221200006F092FE0022784B191C200057
:100E98000AF0A0F90022FF2120000AF0A2F900229E
:100EA800002120000AF0ABF91021200005F072FEA5
:100EB800286805F061FE6E4C2060AF22DC2106F048
:100EC8001FFE082320685B420022052106F06EFE03
:100ED8002068002200210AF084F9206800220021FD
:100EE8000AF08DF9206800220421FFF781FF2068AD
:100EF800002204210AF067F9206801211BF0D4FAC6
:100F08002068032107F0DDFF00269DE0584B186894
:100F180019F0A2F80400574F390006F0C1FD20214E
:100F2800200006F0D5FD0022082120000AF075F9FE
:100F38000022514B191C20000AF04CF902224F4B99
:100F4800191C20000AF046F902224D4B191C2000FA
:100F58000AF04EF90222022120000AF050F920007E
:100F680005F00AFE05003A00390006F0C9FD002226
:100F7800002128000AF035F90022002128000AF093
:100F88003EF9002200212800FFF732FF0021280047
:100F98001BF08AFA02230222002128001BF0B6FA6D
:100FA8000221280005F0F6FD280019F0FFF80700D7
:100FB800344B3201924698469946D1444B4659687B
:100FC80019F0C6FC0022304B191C38000AF01EF933
:100FD8001821380006F064FD280019F0E7F805002C
:100FE80043465246D15819F0B3FC00221E4B191C37
:100FF80028000AF00BF9200019F0D8F805004B4634
:101008001B7A224A1021684617F078F869462800AA
:1010180019F09EFC00221E4B191C28000AF0F6F855
:101028000422002352420821280006F0BFFD194976
:1010380000230722200002F0C7FE174B1868210082
:1010480003F0E3F80136F6B2042E00D85EE704B0E8
:10105800E0BCBA46B146A846F0BDC046841A002096
:1010680018C5FFFFA0E10108E71F00004235000096
:10107800781A0020642000001107000009ACFFFF67
:1010880051B0FFFF78000020565E0000B0E1010873
:10109800AD590000450D00087C1A0020F8B5002065
:1010A80005F06AFD484C20600022484B191C0AF0E4
:1010B80091F820680022FF210AF093F8206819F0BF
:1010C80075F8434D2860434919F042FC2868424F9F
:1010D8000022391C0AF09AF828680C230022022101
:1010E80006F064FD206819F061F83C4D28603C4921
:1010F80019F02EFC28680022012149420AF086F8DE
:10110800142328685B420022092106F04FFD20685D
:101118001AF050FB334D28600C22B42106F0F0FC85
:10112800286814230022092106F040FD28680022BF
:101138002D4B191C0AF04EF828682C4E802292027A
:10114800311C0AF047F82868C0229202391C0AF0BC
:1011580041F82749286800231C2202F035FE206840
:1011680018F07AFF234C20602022502106F0C8FC9A
:10117800102320685B420022052106F017FD206835
:1011880000221D4B191C0AF025F820680222311C88
:101198000AF020F8206819F009F80500174919F035
:1011A800D7FB0022164B191C28000AF02FF8002341
:1011B80000220921280006F0F9FC124920680023C2
:1011C800072202F001FEF8BD801A002018C5FFFFB3
:1011D800741A002040E10108565E00006C1A0020D5
:1011E800B4E10108701A002009ACFFFF51B0FFFFFD
:1011F80011120008681A002011070000B8E1010860
:10120800E71F0000810C000810B502F0C3FD1C2880
:1012180000D010BD134B186818F0CBFE124C227882
:10122800124B12019B181872FFF75CFD2378032BF1
:101238000AD00D4B19780D4B09015A18127AC95862
:101248000B48FFF777FCE4E7084A1B01D218137A2A
:10125800042B00D90423074A9B0098581CF092F9E4
:10126800E7E7C046701A0020641A002078000020C2
:10127800C4E1010800E4010810B502F0DDFE0A4CE3
:10128800206002F0FBFE2168084B186803F060FE3E
:10129800FFF7C4FDFFF702FF054B186802F048FC92
:1012A8000448FFF747FC10BD7C1A002010070020F7
:1012B800841A0020D4E1010810B50400114B1978F4
:1012C800002901D1012010BDFA208000FEF7F0FEB0
:1012D80001000D4B1868FEF7EBFE00F0C9F8002876
:1012E8000DD1032C01D90120EDE7013000222100A6
:1012F800404200F0ADF8054B1C600020E3E70120F8
:10130800E1E7C046C800002070000020CC000020A3
:1013180010B5084A116880235B000B431360002056
:10132800FFF7CAFF041E02D00124200010BDFFF7FA
:101338006DFBFAE700200240034B1B78034A116853
:101348005B1813607047C046C8000020881A002048
:10135800014B18687047C046881A002070B5040011
:10136800FFF7F6FF0500631C02D0044B1B78E41856
:10137800FFF7EEFF401BA042FAD370BDC800002063
:10138800024A136802218B431360704710E000E0A3
:10139800024A136802210B431360704710E000E013
:1013A800034A136803490B40034313607047C04660
:1013B80000000140FFF9FFFF70B5002811DB83082A
:1013C800134DC0339B005C5903221040C000FC320F
:1013D80016008640B44389010A40824022435A518C
:1013E80070BD0F230340083B9B0806339B00094A46
:1013F800944663445C6803221040C000FC32150028
:101408008540AC4389010A40824022435A60E7E79D
:1014180000E100E000ED00E0013880235B04984221
:101428000FD2094A50600948036A1B021B0AC021EF
:1014380009060B43036200239360073313600020FF
:1014480070470120FCE7C04610E000E000ED00E036
:1014580010B5FFF7B1FF10BD002805DB1F220240C1
:1014680001239340014A13607047C04600E100E041
:1014780010B5FFF7D1FF10BD70B52523C35C022B53
:1014880003D00423C363012070BD026813680E21D2
:101498008B43136001680A6801239A430A60416C10
:1014A8000A68134C22400A60124C6268056C1C21C1
:1014B80029408B4013436360836CC26C5A60036D90
:1014C800002B06D01A680A490A401A60436D826DDB
:1014D8005A6025230122C254013B0022C254836B67
:1014E800002B02D098470020CEE70020CCE7C0466A
:1014F800FFFEFFFF00000240F0B5D6464F464646C5
:10150800C0B5002336E0032600E00026A6403400DC
:101518003C43574E1832920094518022B758EA4300
:101528003E00AE434C68E40301D53E002E43504CC8
:101538008027E6518426A7593E0016404C68A4032C
:1015480001D53E002E434A4C8427E65127683E00C9
:1015580016404C68E40201D53E002E43444C2660F8
:10156800666832404C68A40201D52A003243404CD8
:10157800626001330C682200DA4074D001229A407C
:10158800250015401442F4D04C68661E012E03D97C
:10159800112C01D0122C11D186685F000324BC40A5
:1015A800A643CC68BC4034438460446894434E6886
:1015B8003609012232409A4022434260C4685E00E4
:1015C8000322B240D74394438A68B2402243C260A0
:1015D8004A68022A01D0122A19D1DA080832920080
:1015E80092461258904607241C40A20091460F22AA
:1015F8004C46A240944642466446A24390460A6935
:101608004C46A24014004246144352461450046803
:101618003C404F6803223A40B240224302604A6885
:10162800D200A6D59A0814001834A400104EA75961
:1016380003241C40E4000F26A640B743A026F60565
:10164800B04200D161E70B4EB04208D00A4EB0421A
:1016580007D00A4EB04200D155E7052656E70126C5
:1016680054E7022652E7E0BCBA46B146A846F0BDA8
:10167800001802400004005000080050000C005000
:1016880003690B4201D0012070470020FCE7002AC3
:1016980001D0816170478162FCE7000010B5104AF3
:1016A800136810490B400343136080239B00984242
:1016B80001D0002010BD0C4B1B685800C01840001A
:1016C8000A49FEF7F5FC0130054B5B695B0503D55C
:1016D800002803D00138F7E70020EBE70320E9E70B
:1016E80000700040FFF9FFFF7000002040420F002B
:1016F80070B582B0041E00D12CE20368DB0739D52F
:10170800C14A916838230B40D16803220A40102B44
:1017180026D0082B26D063688022520293427FD0BD
:10172800A022D202934200D181E0B74B1A68B74990
:101738000A401A601A68B6490A401A606368002BA2
:1017480000D180E0FFF704FE0500AF4B1B689B0348
:1017580010D4FFF7FDFD401B6428F6D90320FAE1F9
:10176800032AD6D1A84B1B689B0303D56368002BBB
:1017780000D1F2E123689B0731D5A34A9168382349
:101788000B40D16803220A40102B6AD0002B6BD182
:101798009D4A1268520503D5E268002A00D1DEE1AD
:1017A800994842689B490A40616909020A434260B4
:1017B800002B0DD1036898490B4021690B43036046
:1017C8000368DB0A07221A40944BD340944A1360FB
:1017D800944B1868FFF770FD002800D0C1E123681A
:1017E8001B0700D481E0884B9A6838231340182BD4
:1017F80073D0A369002B00D1B4E0834A136E012192
:101808000B431366FFF7A4FD05007F4B1B6E9B0778
:101818006BD4FFF79DFD401B0228F6D903209AE1FF
:10182800794A116880235B020B43136086E7764B85
:1018380019688022D2020A431A601968802252026B
:101848000A431A607AE7FFF783FD05006E4B1B68B1
:101858009B038FD5FFF77CFD401B6428F6D9032036
:1018680079E1022A92D193E7E368002B22D0664AF5
:10187800136869490B4021690B4313601168802381
:101888005B000B431360FFF763FD05005E4B1B68AD
:101898005B0506D4FFF75CFD401B0228F6D9032040
:1018A80059E159494B685B4A134062691202134374
:1018B8004B6094E7544A13685B490B401360FFF789
:1018C80047FD0500504B1B685B0588D5FFF740FDB9
:1018D800401B0228F6D903203DE14B4B1B6E9B07AA
:1018E80003D5A369002B00D13DE123685B0700D431
:1018F800A2E0454B9A6838231340202B45D0424B31
:10190800DB6BDB004AD4404BDA6B802149050A4384
:10191800DA63DB6B0B400193019B0125434B1B688A
:10192800DB053DD5A368012B4ED0052B52D0364B95
:10193800DA6D01218A43DA65DA6D03318A43DA65A3
:10194800A368002B50D0FFF703FD06002E4BDB6D7C
:101958009B076FD4FFF7FCFC801B354B9842F5D9E9
:101968000320F8E0284A136E01218B431366FFF722
:10197800EFFC0500244B1B6E9B07B6D5FFF7E8FC70
:10198800401B0228F6D90320E5E01F4BDB6D9B07BF
:1019980052D5A368002B4FD10120DCE00025BDE71C
:1019A800224A116880235B000B431360FFF7D0FCC9
:1019B80006001E4B1B68DB05B4D4FFF7C9FC801B6F
:1019C8000228F6D90320C6E00F4AD36D01210B4344
:1019D800D365B5E70C4BDA6D04210A43DA65DA6D95
:1019E80003390A43DA65ABE7FFF7B2FC0600064B9A
:1019F800DB6D9B071ED5FFF7ABFC801B0C4B984299
:101A0800F5D90320A7E0C04600100240FFFFFEFF03
:101A1800FFFFFBFFFF80FFFFFFC7FFFF0024F4006D
:101A280070000020CC000020FFFEFFFF0070004087
:101A380088130000012D26D0E369002B00D194E023
:101A4800514A916838220A40102A61D0022B20D0CE
:101A58004D4B1A684D490A401A60DA6803218A43D7
:101A6800DA60DA684A490A40DA60FFF771FC040074
:101A7800454B1B689B0149D5FFF76AFC001B0228F0
:101A8800F6D9032067E0404AD36B42490B40D36341
:101A9800D2E73D4A13683D490B401360FFF758FCF5
:101AA8000500394B1B689B0106D5FFF751FC401B0D
:101AB8000228F6D903204EE0334AD3683649194044
:101AC800236A606A0343A06A00020343E06A03438F
:101AD800206B03430B43D360116880235B040B43E3
:101AE8001360D16880235B050B43D360FFF730FC9C
:101AF8000400254B1B689B0106D4FFF729FC001B3B
:101B08000228F6D9032026E0002024E0002022E065
:101B1800012B2CD01C4BDA6803231340216A8B421B
:101B280027D170231340616A8B4224D1FE21C90159
:101B38001140A36A1B0299421FD1F8239B0313404B
:101B4800E16A8B421BD1520F5207236B9A4218D17C
:101B5800002000E0012002B070BD0120FBE7012059
:101B6800F9E70120F7E70120F5E70020F3E7012076
:101B7800F1E70120EFE70120EDE70120EBE7012085
:101B8800E9E70120E7E7C04600100240FFFFFFFE3B
:101B9800FFFFFEEFFFFFFFEF8C80C11F10B52A4B40
:101BA8009B6838221A4207D1274B1A68D20A0723A2
:101BB80013402648D84010BD234B9A683823134059
:101BC800082B3BD0204B9A6838231340102B0DD09C
:101BD8001D4B9A6838231340202B31D01A4B9A6832
:101BE80038231340182B26D00020E4E7164AD16882
:101BF8000D3B0B40D2681209072111400131032B1C
:101C08000FD01248FEF754FA0F4BDA68120A7F23F6
:101C1800134058430C4BD968490F0131FEF748FA75
:101C2800C9E70B48FEF744FA074BDA68120A7F2324
:101C380013405843EEE7FA20C001BCE70448BAE76E
:101C480080200002B7E7C046001002400024F400DC
:101C580000127A0070B504000D00002800D1AAE037
:101C6800574B1A68072313408B4221D323689A07DE
:101C78000ED55B0705D5534A9168E023DB010B437A
:101C88009360504A936850490B40A1680B43936096
:101C98002368DB0754D56368012B20D0022B3BD087
:101CA800002B3FD1474A126852051CD401206AE034
:101CB800434A136807218B432B431360FFF748FB04
:101CC80006003F4B1A6807231340AB42CED0FFF7FC
:101CD8003FFB801B3D4A9042F3D9032053E0394A29
:101CE8001268920369D537498A68072082431343EB
:101CF8008B60FFF72DFB0600324B9B6838221A4099
:101D08006368DB009A421BD0FFF722FB801B2F4B36
:101D18009842F1D9032036E02A4A12689201E2D4A7
:101D2800012030E0032B05D0264AD26D9207DAD481
:101D3800012028E0234A126E9207D4D4012022E021
:101D48001F4B1A6807231340AB421DD823685B0753
:101D580006D51C4A93681E490B40E1680B43936003
:101D6800FFF71CFF174B9A68120A0F231340194AF2
:101D78009B009A581F231340D840174B1860174BE5
:101D88001868FFF799FA70BD0D4A136807218B434D
:101D98002B431360FFF7DCFA0600094B1A68072388
:101DA8001340AB42D2D0FFF7D3FA801B074B9842BF
:101DB800F3D90320E7E70120E5E70120E3E7C04680
:101DC8000020024000100240FFF0FFFF88130000CF
:101DD800FF8FFFFFC0E3010870000020CC00002047
:101DE800014B18687047C0467000002010B5FFF717
:101DF800F7FF064B9A68120B07231340044A9B000F
:101E08009A581F231340D84010BDC0460010024006
:101E1800A0E30108F0B5D6464F464646C0B582B0A5
:101E280006000D0090461F00FFF792FA0A9B181A49
:101E38008146B944FFF78CFA82462C4B1B685B013C
:101E48001B0D4A465343019333689C682C40641B1E
:101E580063425C41444542D07B1CF5D0FFF778FAD9
:101E68005346C01A484508D2019A002A00D04A466B
:101E7800019B013B01939146E6E732685368E021F4
:101E88008B435360726882235B009A420CD0B26A1B
:101E980080239B019A4216D05D230122F254013B14
:101EA8000022F25403201BE0B368802212029342FE
:101EB80003D08022D2009342E9D1326813684021CE
:101EC8008B431360E3E73268136809490B401360DA
:101ED8003268116880239B010B431360DCE7002004
:101EE80002B0E0BCBA46B146A846F0BD700000207A
:101EF800FFDFFFFFF0B5D6464F464646C0B582B075
:101F080007000D0016009846FFF722FA0A9B181AD8
:101F180040448146FFF71CFA8246314B1B689A0001
:101F2800D218D3009B1A1B0D4A465343019302E073
:101F3800434601330CD13B689C682C40B44248D0DE
:101F4800C022D2009542F3D1002EF1D11B7BEFE7DE
:101F5800FFF7FEF95346C01A484508D2019A002AED
:101F680000D04A46019B013B01939146E3E73A685A
:101F78005368E0218B4353607A6882235B009A425E
:101F88000CD0BA6A80239B019A4216D05D230122A5
:101F9800FA54013B0022FA5403201BE0BB6880225C
:101FA8001202934203D08022D2009342E9D13A68C8
:101FB800136840218B431360E3E73A6813680949C3
:101FC8000B4013603A68116880239B010B43136030
:101FD800DCE7002002B0E0BCBA46B146A846F0BD36
:101FE80070000020FFDFFFFF70B582B004000D0015
:101FF8001600C02100922B0000224901FFF77AFF4A
:10200800002818D100962B00002280212000FFF71D
:1020180001FF002816D1C02100962B000022C9001C
:102028002000FFF767FF00280AD0236E2022134301
:102038002366032004E0236E202213432366032033
:1020480002B070BD236E2022134323660320F7E7F6
:1020580070B5041E00D178E0436A002B07D14268AE
:102068000533FF339A4205D00023C36102E0002301
:10207800036143610023A3625D33E35C002B5AD004
:102088005D230222E2542268136840218B431360C7
:10209800E368E022D200934254D90022F0210901DA
:1020A8008B4205D0E021C9008B4201D00023A362F6
:1020B8006368822149000B40A16884200002014026
:1020C8000B432069022101400B436069012108404C
:1020D8000343A0698025AD0028400343E569382003
:1020E80028400343256A802028400343A06A8025AE
:1020F800AD012840256803432B60608B042303400F
:10210800656A102028400343656B08202840034374
:10211800E068F0252D0128400343206813434360FD
:102128002268D3690A480340D361002323665D33DC
:10213800E154002070BD5C330022E25420001BF003
:1021480029F99DE780225201A8E70120F2E7C0465D
:10215800FFF7FFFFF0B5CE4600B584B0040001914B
:1021680091461D005C23C35C012B00D1C7E05C23B2
:102178000122C254FFF7ECF806005D23E35CDFB2EE
:10218800012B00D0A7E00199002900D1A4E04B461B
:10219800002B00D1A0E05D230322E2540023236634
:1021A800A1634A46A287E28723644422A3520232EB
:1021B800A3522365E364A26880231B029A421ED0BF
:1021C800226813685B0603D4136840210B4313602D
:1021D800E268E023DB009A4238D96368002B02D01A
:1021E8004B46012B20D1A26B23681288DA60A36BBF
:1021F8000233A363E38F013B9BB2E38714E02268B9
:10220800136840218B431360226811688023DB0127
:102218000B431360D4E7FFF79BF8801BA84201D358
:102228006B1C64D1002D64D0E38F002B3BD0226857
:1022380093689B07EFD5A36B1B88D360A36B02330E
:10224800A363E38F013B9BB2E387EDE76368002B51
:1022580002D04B46012B14D1A26B236812781A7353
:10226800A36B0133A363E38F013B9BB2E38708E0D1
:10227800FFF76EF8801BA84201D36B1C3BD1002DE1
:102288003BD0E38F002B0ED0226893689B07EFD5D5
:10229800A36B1B781373A36B0133A363E18F01391D
:1022A80089B2E187EDE7320029002000FFF79CFEA4
:1022B800002801D020232366A368002B06D10393AE
:1022C8002368DA6803929B680393039B236E002BB1
:1022D80002D1002700E002275D230122E254013BDE
:1022E8000022E254380004B080BCB946F0BD032790
:1022F800F2E70327F0E70327EEE70327ECE70227D7
:10230800F0E70000F0B583B00400009101921E00D0
:10231800089D5C23C35C012B00D10EE15C230122E4
:10232800C254FFF715F807005D23E35CD9B2626871
:10233800012B0BD082235B009A4200D0E4E0A36813
:10234800002B00D0E9E0042900D0E8E0009B002B36
:1023580000D1E6E0019B002B00D1E4E0002E00D183
:10236800E3E05D23E35C042B02D05D230522E25405
:1023780000232366019A22644622A652023AA652F4
:10238800009AA263E687A687E3642365E268E023F0
:10239800DB009A4223D92268536869490B4053608D
:1023A80023681A68520603D41A6840210A431A603F
:1023B800E268E023DB009A4250D96368002B01D021
:1023C800012E0AD1A26B23681288DA60A36B02334C
:1023D800A363E38F013B9BB2E38701262DE02268CC
:1023E800516880235B010B435360D9E7A36B1B88BB
:1023F800D360A36B0233A363E38F013B9BB2E387F4
:10240800002622689368DB070FD54623E35A002B82
:102418000BD0D268236C1A80236C023323644622C3
:10242800A35A013B9BB2A3520126FEF791FFC01BA2
:10243800A84202D36B1C00D079E0E38F002B03D1B4
:102448004633E35A002B54D0226893689B07D8D5AB
:10245800E38F002BD5D0012ED3D1C7E76368002BBB
:1024680001D0012E0AD1A26B236812781A73A36BCC
:102478000133A363E38F013B9BB2E38701261CE092
:1024880022689368DB070FD54623E35A002B0BD04D
:10249800236C127B1A70236C013323644622A35ADF
:1024A800013B9BB2A3520126FEF752FFC01BA84274
:1024B80001D36B1C3DD1002D3DD0E38F002B03D100
:1024C8004633E35A002B14D0226893689B07D7D56C
:1024D800E38F002BD4D0012ED2D1A36B1B781373BA
:1024E800A36B0133A363E38F013B9BB2E387002611
:1024F800C6E73A0029002000FFF776FD002804D03F
:1025080020232366012000E002205D230122E254FB
:10251800013B0022E25403B0F0BD0220F5E702209F
:10252800F3E70120F1E70120EFE70120EDE70320C1
:10253800EBE70320E9E70320E7E70220EBE7C046E3
:10254800FFEFFFFF70470000F0B585B00400026898
:10255800556893689909012006000E40084203D186
:10256800D90701D569066AD4990701D529066AD41D
:102578005909012007000F40084203D1002E01D15C
:10258800D90563D5A90661D5002E0ED05D21615C01
:1025980003295DD0216E04200143216600210091AA
:1025A800D1680091916800910099002F0CD0216E9C
:1025B800012001432166002102919168029111686E
:1025C8003F3081431160029ADB0509D5236E08224A
:1025D800134323660023039323689B680393039B99
:1025E800236E002B32D022685368E0218B4353605E
:1025F8005D230122E254AD0732D022685368DD39E9
:102608008B435360A36D002B0AD0174A9A63A06DC1
:10261800FEF732FF002803D0236E402213432366BF
:10262800636D002B12D0104A9A63606DFEF724FF89
:1026380000280BD0236E40221343236606E0E36C88
:102648002000984702E0236D2000984705B0F0BDB0
:1026580000230193D368019393680193019BF5E7E5
:102668002000FFF76FFFF1E77526000810B5806AB4
:10267800002346228352C387FFF764FF10BD000082
:1026880030B5036A012293430362056A426883698D
:10269800194C23400C681C4302239D438B682B4331
:1026A800164DA84208D0164DA84205D0154DA8428F
:1026B80002D0154DA84206D10825AB431D00CB68B2
:1026C8002B430425AB430D4DA84208D00C4DA8421E
:1026D80005D00C4DA84202D00B4DA84205D10B4D98
:1026E8002A404D6915438A692A43426084614A68D1
:1026F8004263036230BDC0468CFFFEFF002C0140E0
:10270800004001400044014000480140FFFCFFFF39
:1027180030B5036A184A13400362046A4268C36901
:10272800164D2B400D681D43154B1C408B681B0232
:102738002343144CA04209D0134CA0420DD0134C93
:10274800A0420AD0124CA0420FD106E0114C1C4006
:10275800CB681B022343104C2340104C22404C6989
:10276800240114438A69120122434260C5614A6800
:10277800C263036230BDC046FFFEFFFF8CFFFEFF51
:10278800FFFDFFFF002C01400040014000440140D4
:1027980000480140FFF7FFFFFFFBFFFFFFCFFFFFF0
:1027A80030B5036A134A13400362046A4368C26976
:1027B800114D2A400D682D021543104A14408A68AD
:1027C800120322430E4CA04208D00E4CA04205D062
:1027D8000D4CA04202D00D4CA04204D10C4C1C4020
:1027E8004B699B0123434360C5614B6803640262E4
:1027F80030BDC046FFEFFFFFFF8CFFFEFFDFFFFF8E
:10280800002C0140004001400044014000480140C4
:10281800FFBFFFFF30B5036A124A13400362046A20
:102828004368426D104D2A400D6815430F4A144005
:102838008A68120422430E4CA04208D00D4CA042D4
:1028480005D00D4CA04202D00C4CA04204D1054C3E
:102858001C404B691B022343436045654B688365F5
:10286800026230BDFFFFFEFF8FFFFEFFFFFFFDFF8F
:10287800002C014000400140004401400048014054
:1028880030B5036A134A13400362046A4368426D11
:10289800114D2A400D682D021543104A14408A68CC
:1028A800120522430E4CA04208D00E4CA04205D07F
:1028B8000D4CA04202D00D4CA04204D10C4C1C403F
:1028C8004B699B022343436045654B68C3650262BD
:1028D80030BDC046FFFFEFFFFF8FFFFEFFFFDFFFAA
:1028E800002C0140004001400044014000480140E4
:1028F800FFFFFBFF30B5036A046A0125AC4304629D
:102908008469EF35AC43120122430A24A3430B43E5
:102918008261036230BD000030B5036A1024A3430E
:1029280003628469036A054D2C4012032243A024E4
:10293800A343090119438261016230BDFF0FFFFF04
:102948008368034A13400B4307221343836070478D
:102958008FFFCFFF3D23C35C012B25D13C330222DF
:10296800C2540268D36801210B43D3600368114A3B
:1029780093420BD0104A934208D0104A934205D094
:102988001A6801210A431A6000200EE09A680C496F
:102998000A40062A0AD007398A4209D01A68012152
:1029A8000A431A60002000E0012070470020FCE77D
:1029B8000020FAE7002C01400004004000400140DC
:1029C8000700010070477047704770477047000064
:1029D80010B50400026813699B070FD5D3689B07DD
:1029E8000CD503235B4213610433037703689B69A7
:1029F8009B076AD0FFF7E8FF002323772268136953
:102A08005B0712D5D3685B070FD505235B421361BB
:102A18000733237723689A69C0239B001A425AD048
:102A28002000FFF7D1FF00232377226813691B07D3
:102A380010D5D3681B070DD509235B4213610D33ED
:102A480023772368DB699B074CD02000FFF7BCFF86
:102A58000023237722681369DB0612D5D368DB06C7
:102A68000FD511235B421361193323772368DA6981
:102A7800C0239B001A423CD02000FFF7A5FF00238B
:102A8800237722681369DB0702D5D368DB0737D4BD
:102A9800226813691B0602D5D3681B0637D422683F
:102AA8001369DB0502D5D3681B0637D4226813697E
:102AB8005B0602D5D3685B0636D4226813699B0689
:102AC80002D5D3689B0636D410BDFFF77CFF2000E3
:102AD800FFF77BFF90E72000FFF775FF2000FFF767
:102AE80074FFA0E72000FFF76EFF2000FFF76DFFDF
:102AF800AEE72000FFF767FF2000FFF766FFBEE79D
:102B080002235B4213612000FFF75CFFC0E78123CB
:102B18005B421361200000F022FBC0E7094B136100
:102B2800200000F01DFBC1E741235B421361200038
:102B3800FFF74CFFC1E721235B421361200000F03F
:102B48000DFBC1E7FFFEFFFF03681D4A904202D05C
:102B58001C4A904203D1702293434A681343184A8F
:102B680090420ED0174A90420BD0174A904208D094
:102B7800164A904205D0164A904202D0154A904211
:102B880003D1154A1A40CB681343802293434A69FC
:102B9800134303608B68C3620B688362084B9842D7
:102BA80008D00A4B984205D0094B984202D0094BED
:102BB800984201D10B690363012343617047C04602
:102BC800002C01400004004000200040004001406B
:102BD8000044014000480140FFFCFFFF70B5041E9F
:102BE8002AD03D23C35C002B20D03D25022363550A
:102BF800210001C9FFF7A8FF01234822A3540A3A7C
:102C0800A3540132A3540132A3540132A354013214
:102C1800A3540132A3540132A3540132A354013204
:102C2800A3540132A3546355002070BD3C330022E5
:102C3800C2541AF013FCD8E70120F6E770B5041E59
:102C48002AD03D23C35C002B20D03D2502236355A9
:102C5800210001C9FFF778FF01234822A3540A3A4B
:102C6800A3540132A3540132A3540132A3540132B4
:102C7800A3540132A3540132A3540132A3540132A4
:102C8800A3540132A3546355002070BD3C33002285
:102C9800C2541AF0FDFBD8E70120F6E770B5036AC5
:102CA800102293430362026A44688369164D2B40DD
:102CB8000D682D021D4320239A438B681B01134383
:102CC800124A904209D0124A90420ED0114A9042BC
:102CD8000BD0114A904210D107E0802293431E0086
:102CE800CB681B013343403A93430C4A14404A696A
:102CF800920022438C69A4001443446085614A68A9
:102D08008263036270BDC046FF8CFFFE002C014049
:102D1800004001400044014000480140FFF3FFFF2C
:102D280070B504000D003C23C35C012B00D18AE080
:102D38003C230121C154142A16D89200434B9B58B6
:102D48009F4600682900FFF79BFC226893690821C9
:102D58000B4393612268936904398B43936122681A
:102D6800936929690B4393613C230022E2540020B4
:102D780070BD00682900FFF791FF226891698023E0
:102D88001B010B4393612268936931490B4093619E
:102D980021688B692A69120213438B61E4E7006892
:102DA8002900FFF7B5FC2268D36908210B43D361DA
:102DB8002268D36904398B43D3612268D3692969AE
:102DC8000B43D361D0E700682900FFF7E9FC2268CC
:102DD800D16980231B010B43D3612268D3691C4945
:102DE8000B40D3612168CB692A6912021343CB6176
:102DF800BAE700682900FFF70DFD2268536D082126
:102E08000B4353652268536D04398B43536522681D
:102E1800536D29690B435365A6E700682900FFF73E
:102E28002FFD2268516D80231B010B4353652268D7
:102E3800536D07490B40536521684B6D2A6912028F
:102E480013434B6590E7022092E7C04614E401085B
:102E5800FFFBFFFF30B58468034D2C401B02134372
:102E68000B432343836030BDFF00FFFF10B5040010
:102E78003C23C35C012B66D03C230122C25401339E
:102E88000132C254026893683048034093600B686B
:102E9800602B44D01DD8402B4BD00BD9502B36D1AA
:102EA800CA6849682068FFF725FD20685021FFF7A8
:102EB80047FD2CE0202B07D004D8002B04D0102B82
:102EC80002D024E0302B22D120681900FFF738FD0A
:102ED8001DE0702B10D080229201934217D1CB684D
:102EE8004A6889682068FFF7B5FF226891688023DF
:102EF800DB010B4393600AE0CB684A688968206865
:102F0800FFF7A8FF2268936877210B4393603D235E
:102F18000122E254013B0022E254002010BDCA689D
:102F280049682068FFF7F8FC20686021FFF708FD72
:102F3800EDE7CA6849682068FFF7DCFC2068402193
:102F4800FFF7FEFCE3E70220E8E7C0468800CEFF73
:102F580010B51F23194001248C40036AA343036260
:102F6800036A8A401343036210BD000010B50400D1
:102F7800102926D88B00424AD3589F463E23C35C6B
:102F8800013B5A1E9341DBB221E03F23C35C013B66
:102F98005A1E9341DBB21AE04023C35C013B5A1E20
:102FA8009341DBB213E04123C35C013B5A1E9341BA
:102FB800DBB20CE04223C35C013B5A1E9341DBB2F7
:102FC80005E04323E35C013B5A1E9341DBB2002B2F
:102FD80050D1102917D88B002A4AD3589F463E2330
:102FE8000222E25412E03F230222E2540EE0402380
:102FF8000222E2540AE041230222E25406E042237C
:103008000222E25402E043230222E2542068012211
:10301800FFF79EFF23681C4A934208D01B4A93423D
:1030280005D01B4A934202D01A4A934204D1596CE4
:10303800802212020A435A642368134A93420BD02F
:10304800154A934208D0114A934205D01A680121C3
:103058000A431A6000200EE09A6810490A40062ABE
:103068000AD007398A4209D01A6801210A431A602E
:10307800002000E0012010BD0020FCE70020FAE756
:1030880068E40108ACE40108002C0140004001405C
:1030980000440140004801400004004007000100CE
:1030A80070B504000D0000680022FFF751FF236887
:1030B800224A93421BD0224A934218D0214A934273
:1030C80015D0214A934212D02368196A1F4A114227
:1030D80007D1196A1E4A114203D11A6801218A438D
:1030E8001A60102D24D8AD001A4B5B599F46196AF7
:1030F800164A1142E8D1196A154A1142E4D15A6CAC
:1031080015490A405A64DFE73E230122E25412E0DF
:103118003F230122E2540EE040230122E2540AE058
:1031280041230122E25406E042230122E25402E054
:1031380043230122E254002070BDC046002C014008
:1031480000400140004401400048014011110000C6
:1031580044040000F0E40108FF7FFFFF7047704758
:103168007047704710B504008368026913434269C9
:103178001343C2691343426E1A4301680B686B48D4
:10318800034013430B602268536869490B40E168A8
:103198000B435360A369226A1A4321688B68654808
:1031A800034013438B602268D36A0F218B43616A03
:1031B8000B43D3622368604A934218D05F4A934214
:1031C80026D05F4A934244D05E4A934231D01023BE
:1031D800E0698022120290423DD0042B00D192E097
:1031E80070D8002B75D0022B6AD1574875E0574B21
:1031F8005A6D03231340022B1DD005D8002B1CD079
:10320800012B1CD10333E3E7032B1AD10533DFE786
:103218004E4B5A6D0C231340082B14D005D8002BA5
:1032280013D0042BD4D01023D2E70C2B0FD1043B9E
:10323800CEE70023CCE70223CAE70023C8E7102320
:10324800C6E71023C4E70223C2E70023C0E7102320
:10325800BEE70023BCE7042B2FD007D8002B09D0EA
:10326800022B01D1384809E0012056E0082B05D08F
:10327800012052E0FEF7BAFD002847D0626A344BBD
:103288005200D15AFCF714FF400061684B08C0187F
:10329800FCF70EFF83B20004000C010010392D4A20
:1032A800914235D80F2293431A0040080723034060
:1032B80013432268D36000202FE0FEF76FFCDBE7A2
:1032C80001202AE0082B02D18020000205E001201D
:1032D80023E0FEF78BFD00281CD0626A1C4B5200CD
:1032E800D15AFCF7E5FE61684B08C018FCF7E0FE10
:1032F8000004000C0200103A164B9A420CD82368BE
:10330800D860002009E0FEF749FCE4E7002004E06B
:10331800012002E0002000E0012001236A22A352DC
:10332800023AA35200232367636710BDF369FFCFF6
:10333800FFCFFFFFFFF4FF110038014000440040B9
:1033480000480040004C00400024F40000100240F7
:1033580034E50108EFFF0000836ADB0706D5026841
:1033680053682C490B40C16A0B435360836A9B071F
:1033780006D50268536828490B40016B0B4353601C
:10338800836A5B0706D50268536824490B40416B82
:103398000B435360836A1B0706D5026853682049AC
:1033A8000B40816B0B435360836ADB0606D50268CA
:1033B80093681C490B40C16B0B439360836A9B065F
:1033C80006D50268936818490B40016C0B4393605B
:1033D800836A5B060BD50268536814490B40416C3D
:1033E8000B435360426C80235B039A420AD0836A82
:1033F8001B0606D5026853680D490B40C16C0B4388
:1034080053607047026853680A490B40816C0B434C
:103418005360ECE7FFFFFDFFFFFFFEFFFFFFFBFF31
:10342800FF7FFFFFFFEFFFFFFFDFFFFFFFFFEFFF64
:10343800FFFFF7FFFFFF9FFFF8B5CE46474680B571
:1034480006000D0017009946089B98463368DC690A
:103458002C40641B63425C41BC4241D1434601336A
:10346800F4D0FDF775FF4B46C01A404523D84346B4
:10347800002B20D0326813685B07E7D5D3691B059A
:10348800E4D580231B0113623268136817490B4087
:10349800136032689368A331FF318B439360202314
:1034A8008422B3500432B3500432B3506033002244
:1034B800F254032015E0326813680C490B4013607E
:1034C80032689368A331FF318B43936020238422B1
:1034D800B3500432B35060330022F254032000E0AA
:1034E8000020C0BCB946B046F8BDC0465FFEFFFF2D
:1034F800F0B5C64600B582B004000D0090461E0027
:103508008423C358202B69D1002900D16BE0002AFD
:1035180000D16AE0826880235B019A421FD0802331
:10352800E35C012B63D080230122E2540C33002298
:10353800E250083B2132E250FDF70AFF070054230E
:103548004246E2520233E252A26880235B019A4269
:103558000CD00023984680230022E2541DE0036922
:10356800002BDCD1CB07DAD5012038E02369002B0A
:1035780002D000239846EEE7A8460025EBE743462D
:103588001B882268DB05DB0D936202239C46E0441E
:103598005623E25A013A92B2E2525623E35A002BDA
:1035A8000FD000963B00002280212000FFF744FF47
:1035B80000281ED1002DE2D02A7823689A620135AE
:1035C800E6E700963B00002240212000FFF734FF89
:1035D800002810D184232022E25000E0022002B00B
:1035E80080BCB846F0BD0120F9E70120F7E70220CA
:1035F800F5E70320F3E70320F1E7000030B583B0D7
:1036080004008C230022C250FDF7A2FE05002368A7
:103618001B681B070FD423681B685B0718D420237B
:103628008422A3500432A3500023E366083AA3542B
:10363800002003B030BD80210C4B00930300002212
:1036480089032000FFF7F8FE0028E4D00320F0E704
:103658008021064B00932B000022C9032000FFF7AE
:10366800EBFE0028DBD00320E3E7C046FFFFFF01A5
:1036780010B5041E30D08423C358002B22D08423D5
:103688002422E2502268136801218B431360200032
:10369800FFF768FD012814D0A36A002B18D122680F
:1036A80053680E490B405360226893682A218B4364
:1036B80093602268136829390B4313602000FFF7D1
:1036C8009DFF10BD80330022C254FFF74AFDD6E7A4
:1036D8002000FFF741FEE2E70120F2E7FFB7FFFF16
:1036E8000A38C3B2002004229A424041C0B270474F
:1036F80010B5C9B2002207F097FD10BD10B509B288
:1037080004F0ACF910BD10B509B204F08FF910BD82
:1037180070B50500006807F0A1FD040000690022EB
:10372800272100F00DFB60690022282100F008FB2A
:103738006069002803D02823E35C9B070FD400228C
:1037480062612821635C012083436354A261286875
:10375800383107F0BBFA206904F063FE70BD07F04A
:1037680062FEECE770B5050007F078FD041E24D072
:103778000669002E04D000222521300000F0E0FA6E
:103788002369002B04D000222621280000F0D8FA53
:1037980025610023A361002D04D0002227212800E1
:1037A80000F0CEFA2369002B04D000222821300033
:1037B80000F0C6FA280004F034FE70BD10B50028E9
:1037C80001D0006910BD12F07BFB0028F9D1F9E7A0
:1037D80010B512F075FBFFF7F1FF10BD70B50500CD
:1037E800006807F03BFD0400FFF7F2FF60612868FE
:1037F80020610022262100F0A3FA70BD10B5002830
:1038080001D0406910BD12F05BFB0028F9D1F9E73F
:1038180010B5002801D0C06910BD12F051FB002876
:10382800F9D1F9E710B5002801D0006A10BD12F0EF
:1038380047FB0028F9D1F9E710B5002801D08068C6
:1038480010BD12F03DFBFAE7F0B5DE4657464E468E
:103858004546E0B5A3B005000E0091461F002CAB0D
:103868001B789A4607F0FAFC0400FFF7B1FF804680
:10387800854200D19CE0A069A84200D198E00028C8
:1038880015D0FFF76FFFA069002112F011FDA069A4
:103898000022002104F0FAF8A0690022602107F054
:1038A80015FA2823E35C9B075ED4A3699846A561B3
:1038B8006069002803D02823E35C9B0758D43000B4
:1038C800FFF70EFF282101239B4602001A40605C87
:1038D80098431043605453465A461A405300C2B2A4
:1038E80002208243134363540021280012F0E0FCB5
:1038F800FFF76EFF002112F0DBFC002200212800F8
:1039080004F0C4F8FFF764FF0022002104F0BEF8B9
:1039180000226021280007F0D9F9FFF759FF00229B
:10392800602107F0D3F94B463B4326D011AB9A46AA
:10393800180012F0A3FC1195774B52469360774B11
:10394800D36053464A46DA627F421F63684612F0E4
:1039580095FC236900934B460B930C970E2E1CD8AD
:10396800B6006F4B9B599F46404607F05CFD9CE7AD
:1039780007F059FD00236361A1E72800FFF7F2FE75
:103988005346002B14D0404607F04DFD10E0654A21
:103998001292002219921A921B9200222521404667
:1039A80000F0CEF911A812F0B9FC684612F0B6FC86
:1039B80023B0F0BCBB46B246A946A046F0BD594B61
:1039C8001293200012F082FA19901A9000231B9388
:1039D800E3E7544B1293200012F078FA4042199012
:1039E8001A9000231B93D8E74F4B1293200012F034
:1039F80084FA19901A9000231B93CEE74A4B12932E
:103A0800200012F07AFA404219901A9000231B9372
:103A1800C3E7444F1297200012F058FA19901A90F1
:103A280000261B960197200012F050FA4042089693
:103A380009960A90B1E73B4F1297200012F046FA18
:103A4800404219901A9000261B960197200012F008
:103A58003DFA089609960A909FE7334F129720007F
:103A680012F04BFA19901A9000261B960197200025
:103A780012F043FA4042089609960A908DE72A4FB9
:103A88001297200012F039FA404219901A90002635
:103A98001B960197200012F030FA089609960A90B2
:103AA8007BE7224A1292002219921A92FF321B9245
:103AB80073E71E4A0192FF220892099200220A9295
:103AC8006BE7184B0193200012F000FA40420023E4
:103AD800089309930A9060E7124B0193200012F0B3
:103AE800F5F90023089309930A9056E70E4B0193C2
:103AF800200012F002FA40420023089309930A902A
:103B08004BE7094B0193200012F0F7F900230893C3
:103B180009930A9041E7C046E537000819370008BD
:103B28004CE501080F37000805370008F93600088A
:103B380000B583B00023009300220021FFF784FE24
:103B480003B000BD10B5002806D0AA235B00C358F7
:103B5800D817C01AC00F10BD12F0B2F90028F4D15E
:103B68000020F8E78068002809D0837E9B069B0E1A
:103B78008B4205D9C0684B005B189B00C018704782
:103B88000020FCE710B50400037E5B071BD4037A12
:103B9800233B012B01D8012010BD40688021C901B9
:103BA80003F04EF80028F7D0237A113BDBB21B2133
:103BB800994292415242994207D30549D940C907CF
:103BC800EAD51000E8E70020E6E71000E4E7C04681
:103BD800FF270F0B10B50C00002801D0006803E088
:103BE8004B68186800E00068002802D00369002BC1
:103BF800F9D000280CD00369002B0BD00023E36018
:103C0800036921009847237EDB0705D4012010BDF6
:103C18000120FCE70120FAE70020F8E7F8B50500E5
:103C280001F028F900280ED000688368002B01D025
:103C3800297A98472B7E022217001F401A4200D08B
:103C480077E0DB075FD468680021FFF78BFF04008B
:103C5800002612E06368EB602368280098472B7EF3
:103C6800022217001F401A4265D1DB074BD40136E8
:103C780068683100FFF776FF0400002C0FD0236836
:103C8800002BF4D0237A0822A256002AEFDA802BE0
:103C9800E0D0802293432A7A9342E8D1DAE72900D8
:103CA8000020FFF797FF071E04D068680021FFF780
:103CB80059FF0400002612E06368EB6023682800BF
:103CC80098472B7E0222110019401A421BD1DB07AC
:103CD80033D4013668683100FFF744FF0400002C34
:103CE8000FD0012F0DD12368002BF2D0227A0823A0
:103CF800E356002BEDDB002ADED02B7A9A42E8D17E
:103D0800DAE7012F01D03800F8BD6B685B68002B3B
:103D1800F9D02800FFF736FF0028F4D06B685B68FD
:103D28006B602800FFF77AFF07000128EBD0002717
:103D3800E9E70127E7E70127E5E70F00E3E70000E8
:103D480030B589B000281DD001AC019002902172D5
:103D5800002304930592237E012293432376DBB24A
:103D6800033293432376DBB2023A93432376064D1C
:103D78002B6806932C602000FFF750FF069B2B60F2
:103D880009B030BD0120FBE78C1A0020006870479D
:103D980040687047037A7F20184070470069704771
:103DA800084B1B6804E01A7E01210A431A765B69F6
:103DB800002B06D05A688242F5D01A688242F6D1A2
:103DC800F1E770478C1A0020F0B5C64600B504002C
:103DD8000F001600984603F0A3F9A068837E9A06A0
:103DE800920E01323F210A408B4313438376A56824
:103DF800E868AB7E9B069A0E590E8918890013F065
:103E0800D5FAE860A368DA689B7E9B06990E5B0E7C
:103E18005B189B000C3BD750A368DA689B7E9B0617
:103E2800990E5B0E5B189B000C3BD3181E72A268A0
:103E3800D368927E9206910E520E521892000C3A56
:103E48009B1842465A60A368D8689B7E9B069A0EC8
:103E58005B0E9B189B000C3BC01880BCB846F0BD9D
:103E680010B5037A013BDBB20F2B02D8FFF796FFA0
:103E780010BD0020FCE710B5027A1300143BDBB23A
:103E8800022B05D9182A03D0172A01D0192A02D1E2
:103E9800FFF784FF10BD0020FCE710B50C00037A83
:103EA800132B00D010BDFFF779FF0022835E1A1C88
:103EB800A34200DA221C0280F4E7F8B506000020CD
:103EC80012F084F804000025002705E025002700EB
:103ED800200012F07BF80400002C0BD0200000F02A
:103EE800CFFF636DB342F3D1022810D00428EDD080
:103EF8002500EDE7002F01D03800F8BD002D01D0D6
:103F08002F00F9E7002012F061F80700F4E7270016
:103F1800F2E7F0B5CE46474680B583B00700019179
:103F28009146037FDB076ED4C568012600239846B7
:103F3800002D20D001234246002A2BD0002B05D08B
:103F480029003800C8470500804567D0002DEFD00C
:103F5800286802F082FE0006EAD42C68002C23D0E0
:103F68000121200002F06CFE002817D1200007F084
:103F780069F90400F2E73B7F1B0702D44346002B94
:103F880048D1002E40D03800019B984705000026F4
:103F98000023D0E7002D3FD0A846CFE7012120001D
:103FA80002F04EFE0028C3D1FB68AB4238D0002B8C
:103FB80010D01C683800FFF780FF02000F21200096
:103FC800FFF7BEFE012801D000261DE0FB68186837
:103FD80004F027FAFD602C683800FFF76EFF020036
:103FE8000E212000FFF7ACFE012801D000260BE0CF
:103FF800FB68186804F015FA3B69002B12D03800EA
:104008009847012600E00026300003B0C0BCB9463E
:10401800B046F0BD0026F7E70026F5E70026F3E7EF
:104028000026F1E70126EFE710B50248202112F03B
:10403800E8FF10BDA81D002010B50F4812F0E9FFD9
:10404800041E17D0042112F0DCFF0023E360227F56
:1040580001218A43227723616361D2B201318A4305
:104068002277D2B204210A432277D2B208210A4326
:104078002277A361200010BDA81D0020014B186005
:104088007047C046901A0020014B18687047C04618
:10409800901A002070B50400C368002B0DD01D686D
:1040A800FFF70BFF02000F212800FFF749FEE36826
:1040B800186804F0B6F90023E360200012F0EBFF63
:1040C800010003E0200012F0EEFF0100002906D0F5
:1040D8000B689B68002BF5D000229A60F2E720005D
:1040E80013F05EF870BD000010B50400064A0749D9
:1040F800FFF70FFF6369002B04D0002802D10121CC
:104108002000984710BDC046AF7001089F70010895
:1041180010B50400064A0749FFF7FBFE6369002B48
:1041280004D0002802D100212000984710BDC046C5
:10413800B7700108A770010870B50400037F1D0758
:10414800ED0F082213430377DBB25B0708D4FFF7B0
:10415800CBFFED00237F082293432B43237770BDC9
:10416800FFF7D6FFF5E770B5060002F07EFD051EE5
:104178004AD0C368002B02D01B68B34214D0EB6846
:10418800002B02D01B68B3422FD0280012F083FF07
:104198000400002C38D02368B34229D0210028001D
:1041A80012F081FF0400F4E7037FDB0703D5037FE8
:1041B800012293430377280012F06DFFEB688342D6
:1041C80003D02800FFF7B8FFD9E7280012F067FFEF
:1041D800EB688342F5D11C682800FFF76EFE0200E9
:1041E8000F212000FFF7ACFDC9E70023EB60CCE707
:1041F8002100280012F093FF200013F0B9F8B368EB
:10420800002B01D000229A6070BD70B505000C002B
:1042180000282DD00800FFF7A6FF280012F03BFF6A
:104228000100002907D00B68A34221D0280012F012
:104238003AFF0100F5E7200002F017FD002807D03B
:10424800A3689B68002B03D0DB681B68A34210D0CF
:10425800A368002B10D0A3689D60280012F0FAFE16
:10426800061E05D00460280012F015FF864207D00C
:1042780070BDFFF761FFEBE7200002F051FFEAE7AE
:104288002800FFF759FFF3E7002803D0C06800288B
:1042980000D00068704710B582B00191FFF7F4FFB5
:1042A800041E0DD0802102F0DAFC002802D0012083
:1042B80002B010BD01AA0D212000FFF741FDF7E76C
:1042C8000120F5E770B5041E1CD0037F9B07DB0FA8
:1042D8008B4217D001220A405200037F02218B43F0
:1042E80013430377FFF7D0FF051E0BD0E3681E6862
:1042F8002000FFF7E2FD02000E213000FFF720FD4D
:10430800012800D070BD280004F08BF8FAE7F8B552
:10431800051E06D002F0A9FC061E02D0037FDB07AB
:1043280000D5F8BD0021FFF7CDFF300012F0B3FE35
:104338000400002CF5D02368AB4205D021003000E2
:1043480012F0B1FE0400F4E7F368002B10D01F68E8
:10435800AF420DD03000FFF7B0FD02000F2138004A
:10436800FFF7EEFC0128DCD1F368186804F059F86F
:10437800F4603369002B01D030009847F3681C685B
:104388003000FFF79AFD02000E212000FFF7D8FC4D
:104398000128C6D1F368186804F043F8C1E700287B
:1043A80004D0037F5B080120184070470020FCE719
:1043B80010B512F00BFF10BD10B543799B071CD543
:1043C80000238362C3620363427901218A434271F5
:1043D8008364C3648383C3834331425C0F24A24351
:1043E80042540384438440228352023283524279E6
:1043F80042398A434271014A136010BD941A002061
:104408004078830702D5034B00221A604308012035
:1044180018407047941A002070B50400424B186881
:10442800042102F00DFC00282ED0236B3E4A1068B0
:10443800834229D002F019FC0500206B002801D026
:1044480002F013FCA84220D0002844D0236B002B94
:104458000CD000284ED0354A126810211800FFF7FA
:104468006FFC2000FFF7CCFF00280DD1002D4DD0A8
:104478002D4B1868FFF74BFF2000FFF7C1FF0028FE
:1044880002D1294B1B68236370BD002D09D0264B30
:104498001868FFF73CFF2000FFF7B2FF0028F0D0B4
:1044A800F2E7206B002809D0204B1A680F21FFF78C
:1044B80047FC2000FFF7A4FF0028E5D11B4B1A6832
:1044C800194B18680E21FFF73BFC2000FFF798FFF7
:1044D8000028D6D0D8E7236B002BB7D0134A126830
:1044E8000F211800FFF72CFC2000FFF789FF002898
:1044F800BCD0C9E70D4A12680F211800FFF720FC4D
:104508002000FFF77DFF0028B0D0BDE7074B1A68F1
:10451800054B18680E21FFF713FC2000FFF770FF0A
:104528000028AED0B0E7C046941A0020981A0020A0
:10453800F8B5CE46474680B50500C36A002B03D0C0
:10454800C0BCB946B046F8BD4133C35CDB07F7D4FD
:10455800446A03E0200006F075FE0400002C06D033
:1045680080210902200002F06BFB0028F2D1002C08
:10457800E6D01422AB5EDA179918514089B2344A52
:1045880012681068807E81420AD21626A95FCE176B
:104598008919714089B2884202D90021A987E9871F
:1045A800A88F9BB2C01800B2A887EB8FE98A5B1866
:1045B8001BB2EB87C6178119714089B21668F67E5F
:1045C800B446B14205D8DE179F197740BFB2BC4543
:1045D800B6D22F004037B9467E78B0460126B44699
:1045E8006646474637433E004F467E70DF17DE1962
:1045F8007E40B6B2B14218D900280EDD4021685C71
:104608000F230340202003436B540C212000FFF7A5
:1046180097FB2800FFF7F4FE92E74021685C0F2320
:104628000340102003436B54EFE7002B08DD4020C4
:104638002B5C0F21194080235B420B432B54E4E78A
:104648004021685C0F230340402003436B54DCE7A0
:10465800981A0020F0B5C64600B582B00500437828
:104668001B0723D4686A4D4B1860EF6A002800D1F5
:1046780087E04B4B1A680821FFF762FB2800FFF719
:10468800BFFE002800D084E0002F24D000236B62F6
:104698006B64AB64002F7CD001AB00221A805A8077
:1046A8003C0080235B00984600264BE03C4B1A6890
:1046B800406A0321FFF744FB2800FFF7A1FE00280A
:1046C80067D100236B62AB626B64AB646B780822C2
:1046D80093436B70C6E76B78DB070BD4304B1A68D3
:1046E8002E4B18680421FFF72BFB2800FFF788FEE4
:1046F80000284ED12A4B1A68284B18680721FFF763
:104708001FFB2800FFF77CFE0028BFD041E06E2287
:104718000021200006F0CFF880B2861936B26D224B
:104728000021200006F0C7F800B2C317FF21194086
:1047380009180912434659430BB29846200006F05F
:1047480081FD0400002CE2D1002E03D180235B0000
:10475800984516D0764236B2414680204002FBF793
:1047680031FD04B201AB984628001C30220031000C
:1047780012F07CF92800203043462200310012F064
:1047880075F9002F05D0280001F062FC2800FFF71A
:1047980037FE02B080BCB846F0BDC046941A00206F
:1047A800981A0020F8B504000D008B7B012B31D03E
:1047B80063791B070AD56379082293436371002242
:1047C800A264DBB201218B4363712272666D002EF5
:1047D8001FD03000FFF758FD9A4B1860002818D0FA
:1047E800802102F03CFA0700E1686B68E360227AF6
:1047F800AB7B2372012B11D0002F07D1012B00D1E5
:104808006BE0002B02D1012A00D1E6E08D4B00229B
:104818001A60F8BD43791B07CAD5FAE7002AEBD11D
:1048280011F004FCA0646968092910D00B291BD079
:10483800002FEBD10A2924D01B2938D03000FFF7EC
:104848002AFD201DFFF7DCFD0028DFD0E1E700216D
:104858003000FFF737FD3000FFF746FC201DFFF75B
:10486800CFFD0028D2D0D4E700213000FFF72AFD81
:104878003000FFF74DFC201DFFF7C2FD0028C5D012
:10488800C7E73000FFF707FD04342000FFF7B8FD45
:104898000028BED16C4B1A686A4B18680121FFF7D3
:1048A8004FFA2000FFF7ACFD0028AFD0B1E7300089
:1048B800FFF7F1FC04342000FFF7A2FD0028A8D17F
:1048C800614B1A685F4B18682021FFF739FA2000FE
:1048D800FFF796FD002899D09BE7012A00D090E7C2
:1048E8006B680A2B22D06379DB072CD56379DB0749
:1048F80000D48BE7E06C11F09DFB2368DB8B9842BA
:1049080000D883E711F092FBE06469680A293AD07D
:10491800092946D00B2952D03000FFF7BCFC201DD6
:10492800FFF76EFD002800D170E772E7464B1A6862
:10493800444B18680221FFF703FA201DFFF760FDBA
:104948000028D0D065E7A06C11F074FB23689B8B1E
:104958009842CBD963790122134363716B680A2BA0
:1049680000D053E711F062FBE064374A354B126818
:1049780005211868FFF7E4F9201DFFF741FD00281D
:1049880000D143E745E7304A2E4B126804391868CE
:10499800FFF7D6F9201DFFF733FD002800D135E7D2
:1049A80037E700213000FFF78DFC3000FFF79CFB54
:1049B800201DFFF725FD002800D127E729E7002162
:1049C8003000FFF77FFC3000FFF7A2FB201DFFF748
:1049D80017FD002800D119E71BE769600A2906D0EE
:1049E8000023A36463790122934363710EE7164B96
:1049F8001A68144B18680239FFF7A2F9251D280018
:104A0800FFF7FEFC002800D003E76379DB070CD42E
:104A18000D4B1A680B4B18680421FFF791F9280011
:104A2800FFF7EEFC002800D0F3E6074B1A68054BA9
:104A380018680721FFF784F92800FFF7E1FC002830
:104A4800CED0E6E6941A0020981A0020F8B50400A3
:104A58000D008B7B012B3CD063791B070AD563794A
:104A68000822934363710022A264DBB201218B43C5
:104A780063712272277AAB7B23726B68E360666D81
:104A8800002E25D03000FFF7FFFBA94B1860002847
:104A98001ED0AB7B002B01D00023AB813000FFF789
:104AA800F3FBA34B1860002812D0AB7B012B14D06A
:104AB800012B00D16CE0002B02D1012F00D1E9E0DD
:104AC8009B4B00221A600C22AB5E002B00D074E1D5
:104AD800F8BD43791B07BFD5FAE7002FE8D111F0DD
:104AE800A5FAA06469680A290ED0142930D01329C0
:104AF80033D01B2936D03000FFF7CDFB201DFFF740
:104B08007FFC0028DCD0E3E7894B186802F0CBFB78
:104B1800002814D001273000FFF741FC002801D1FC
:104B2800002FCDD1834B1A68814B18680121FFF7FC
:104B380007F9201DFFF764FC0028C1D0C8E77C4BAB
:104B48001868102102F07CF80028E4D00127E2E779
:104B58000C22AB5E013BAB81B2E70C22AB5E0133AA
:104B6800AB81ADE73000FFF796FB271D3800FFF754
:104B780047FC0028ACD16F4B1A686D4B1868202190
:104B8800FFF7DEF83800FFF73BFC002898D09FE7D6
:104B9800012F00D08FE76379DB071AD56379DB072C
:104BA80000D48DE7E06C11F045FA2368DB8B98425E
:104BB80000D885E711F03AFAE06469680A294CD010
:104BC800142958D013295BD10C22AB5E0133AB8179
:104BD80076E7A06C11F02EFA23689B8B9842DDD9FA
:104BE800637901221343637111F020FAE0646B6862
:104BF8000A2B04D0637901221343637160E74C4B9D
:104C0800186802F050FB002806D1494B102118689B
:104C180002F016F8002813D03000FFF7C9FB01286E
:104C2800E8D93000FFF7BBFB01234340D9B230007D
:104C3800FFF748FB3E4B2021186801F0F6FFD9E743
:104C48003C4A3B4B126805211868FFF779F8201D8C
:104C5800FFF7D6FB0028CDD03AE7364A344B126826
:104C680004391868FFF76CF8201DFFF7C9FB002806
:104C780000D125E72CE70C22AB5E013BAB811FE797
:104C88003000FFF708FB201DFFF7BAFB002800D112
:104C980016E71DE76B680A2B06D00023A364637927
:104CA8000122934363710BE702F0FDFA002806D155
:104CB8001F4B1868102101F0C3FF00280CD03000EA
:104CC800FFF76DFB002837D16379DB07E5D40121B5
:104CD8003000FFF7F7FAE0E7164B1A68144B18682C
:104CE8000821FFF72DF8271D3800FFF789FB00285A
:104CF80000D0EDE66379DB0712D53800FFF780FBBB
:104D0800002800D0E4E60B4A094B1268072118680E
:104D1800FFF716F83800FFF773FB0028BDD0D7E679
:104D2800044A034B126804211868FFF709F8E4E7FE
:104D3800941A0020981A00206379DB0704D5300004
:104D4800FFF736FB012832D8484B1A68484B1868D9
:104D58000821FEF7F5FF271D3800FFF751FB002853
:104D680000D0B5E6414B1A68414B18680421FEF79C
:104D7800E7FF3800FFF744FB002800D0A8E63B4ACD
:104D88003B4B126807211868FEF7DAFF3800FFF777
:104D980037FB002800D09BE60A213000FFF77BFA9A
:104DA8003800FFF72DFB002800D176E790E6304B5E
:104DB8002021186801F039FF6FE73000FFF7EFFA9C
:104DC80000282AD00C22AB5E002B03DB00DC7FE638
:104DD800002713E000270C22AB5E5B42BB4200DCDD
:104DE80076E614213000FFF756FA201DFFF708FB7E
:104DF800002800D06CE60137EDE701370C22AB5EE6
:104E0800BB4200DC64E613213000FFF744FA201DA2
:104E1800FFF7F6FA0028F0D05AE60C22AB5E002B1A
:104E280003DB00DC54E6002712E000270C22AB5E0F
:104E38005B42BB4200DC4BE63000FFF769F9201DFE
:104E4800FFF7DEFA002800D042E60137EEE7013727
:104E58000C22AB5EBB4200DC3AE63000FFF744F9B7
:104E6800201DFFF7CDFA0028F1D031E6981A00206E
:104E7800941A0020014B18687047C046981A002001
:104E8800002802D00368187870470020FCE700006B
:104E980010B50C0000282AD043790222134343712D
:104EA800294B1B68834206D003681B78013BDBB2A1
:104EB800012B04D910BD254B00221A60F4E7002C01
:104EC80006D0436BA3420FD0836AA34204D101E00A
:104ED8000023436300238362002C02D0C36AA342E9
:104EE800E8D10023C362E5E700234363ECE7002031
:104EF80011F06CF806E00023436383620023C36269
:104F080011F064F800281BD043790222134343713F
:104F180003681B78013BDBB2012BF1D8002CEAD0E7
:104F2800436BA34206D0836AA34206D0C36AA34256
:104F3800E6D1E3E700234363F5E700238362F5E75F
:104F4800024B00221A60B5E7981A0020941A002034
:104F580003681B78022B01D0042B00D141657047F0
:104F680000280AD003681B78012B0AD0032B08D02D
:104F780001235B420B804B8009E000230B804B80B0
:104F880005E00822835E0B800A22835E4B8070470F
:104F980000280AD003681B78012B01D0032B06D107
:104FA8004423C05C0007000F70470020FCE7002086
:104FB800FAE7002806D003681B78012B01D0032BE1
:104FC80001D1006B70470020FCE70000014B186816
:104FD8007047C046941A0020F0B583B005000C0055
:104FE800012101F02DFE002836D101AF0422210055
:104FF800380017F0C2FB012300223900280003F013
:1050080086F83900280003F07BFC060028001430DD
:105018000022390011F0D5FA002806D180210903B1
:10502800280001F00DFE002811D0280006F04DF9E7
:10503800441E00E0013C002C09DBAB681A68A300A1
:10504800D05801A9FFF7C8FF0028F3D002E0002ECE
:1050580004D0280003B0F0BD0020FBE70020F9E7EA
:1050680070B50400406A9F4B186063781B0700D531
:1050780089E09D4B1B681B681D69002800D183E0EF
:10508800E36A002B00D1B1E0606A964B1B68984236
:105098004CD00422A35EA3810622A35EE3810028EC
:1050A80009D0914B1A680321FEF74AFE2000FFF74A
:1050B800A7F9002867D18B4B1B686362A362002B9A
:1050C80034D010F0B3FF60646378012083436370C9
:1050D8000023238363834022A15C0F25A943A154A5
:1050E800CDB20F212940A154210040314A78824392
:1050F8004A70A387E387A382E3827B4B1A68794BC4
:1051080018680121FEF71CFE2000FFF779F9002836
:1051180039D1754B186843791B0734D40430FFF72D
:105128007BF92000FFF76CF900282CD1A288A3890D
:10513800D21A12B2A282E388E1895B1A1BB2E38217
:105148001C20215E8918CA0F52185210A2831E21F2
:10515800625ED218D30F9B185B10E383E369236266
:10516800604B186800280ED05F4B1A680221FEF7C2
:10517800E7FD2000FFF744F9002804D15A4B1B68CB
:105188005B791B075AD570BD2800FEF74BFB261D1F
:105198003100FFF721FF534B1860002814D0514B02
:1051A8001B68002B19D0A36A002B00D16CE70023E1
:1051B800A383E383200000F04BFF2000FFF720F9D2
:1051C800002800D160E7DEE72800FEF721FB310068
:1051D800FFF702FF434B1860E1E72800FEF7EEFAFD
:1051E8003100FFF7F9FE3F4B1860DCE780218901A9
:1051F80001F026FD002800D046E72800FEF712FB44
:10520800261D3100FFF7E8FE364B186000280CD049
:10521800344B1B68002BC6D12800FEF7CFFA3100AB
:10522800FFF7DAFE2F4B1860BDE72800FEF7F0FA0B
:105238003100FFF7D1FE2B4B1860E9E7200000F0A2
:105248002FFE2000FFF7DCF800289CD12000FFF794
:105258006FF92000FFF7D4F8002800D093E7E36A3D
:10526800002B20D0E36A002B00D08CE76378DB07A3
:1052780000D488E7A06C10F0DDFE1B4B1A68136899
:10528800DB8B984200D87EE7164B06211868FEF79C
:1052980057FD2000FFF7B4F8002800D073E710F09E
:1052A800C5FEA0646FE76378DB07DBD4606C10F0A1
:1052B800C1FE0D4B1A6813689B8B9842D2D9094BD3
:1052C80005211868FEF73CFD2000FFF799F8002833
:1052D80000D058E7627801231343637010F0A6FEEC
:1052E800A064BFE7941A0020981A002070B5040043
:1052F8000D0003681A6900216B5E83820223E95E50
:10530800C1821068067C30233340202B01D0302B1B
:105318000CD1038828881B1A9BB2013B2B80136889
:105328005B8889B25B1A9BB2013B6B801368197C5E
:1053380030230B40102B01D0302B0AD10223E95E19
:1053480000202B5E6B8013685B885B1A9BB2013B65
:105358002B802368186910F0B9FD2368186910F0CC
:10536800CCFD206D002803D022692B689A4212D107
:105378000022AB5E23810222AB5E63812379012B7D
:1053880010D0201DFFF766F90822A35E23820A22A7
:10539800A35E638270BD0223EA5E0023E95E02F029
:1053A80075FBE5E7201DFFF75BFEEDE7F0B5C646A8
:1053B80000B504000D00826D002A23D08B689B0085
:1053C800D118D75E02228B5E9846AB7B012B1CD08E
:1053D800261D3000FFF714F8002813D12781434613
:1053E8006381AB7B012B1CD03000FFF733F9300011
:1053F800FFF706F8002805D10822A35E23820A22B7
:10540800A35E638280BCB846F0BD1022835EBB42B7
:1054180003D11222835E4345DAD0201DFFF71AF923
:10542800D6E73000FFF71CFEE1E7000070B584B056
:10543800C068324B186003681B69002B0BD0FEF75D
:10544800BBFF2E4B1A6853795B0704D413681B699A
:105458005B69002B1DD004B070BD13681C6910F087
:10546800E5FDB2235B00E05029E00C21625E002AD2
:1054780025D01C6910F0DAFDB2235B00E0501EE075
:105488006946FFF733FF1D4B1868FEF795FF002E9E
:105498002DD06C46194D2868694610F0A5FDE67BAD
:1054A8002868FEF789FF164B00221A602A68A37B3A
:1054B8001371012BD1D013681A78042AD5D00F4B59
:1054C800186803681B78012BDAD0022B07D0042B4D
:1054D80009D0032BD7D16946FFF768FFD3E76946A0
:1054E800FFF760F9CFE76946FFF7B0FACBE7034B60
:1054F80000221A60024B1A60ADE7C046981A0020D5
:10550800941A002070B5002A19D01A23C55E00230A
:10551800D45E2C193626835F9C4203DA9BB2ADB267
:105528005B1B13801A23C55E0023D45E2C193A2610
:10553800835F9C4203DD9BB2ADB25B1B13800029E5
:1055480019D01823C45E0023CA5EA2183425435F0D
:105558009A4203DA9BB2A4B21B1B0B801823C45EC9
:105568000023CA5EA2183823C35E9A4203DD9BB2A9
:10557800A4B21B1B0B8070BD70B51E23C45EFFF761
:1055880079FC03685E7E002508E02D192DB26420A1
:10559800801B60436421FAF715FE04B2002CF4D195
:1055A800280070BD70B51C23C45EFFF763FC036858
:1055B8005E7E002508E02D192DB26420801B604313
:1055C8006421FAF7FFFD04B2002CF4D1280070BD65
:1055D800F0B5DE4657464E464546E0B587B007006B
:1055E80000910292019303F096FC8146002807D1AE
:1055F800002007B0F0BCBB46B246A946A046F0BDA5
:1056080010220021380005F056F9039008235B4268
:105618006B4403B29A4611220021380005F04BF979
:1056280004906B46043B03B29846380005F04DFEE3
:1056380006000024364B9B4625E01A22AB5E7A8B87
:105648000499521A12B23FE0EB8A6A8BD21A92B2CC
:10565800013212B2D10F8A1852109B181BB2F88A65
:10566800039A821892B2798B091A89B2013109B268
:105678005046091A4046091AC80F411849105218CD
:1056880012B221E00134B44238D2BB681A68A300D0
:10569800D5582049280001F0DAFA0028F2D18021F3
:1056A8004901280001F0CCFA0028EBD04B46022B28
:1056B800C3D0032BC8D0012BE4D11622AB5EFA8AE3
:1056C80003998C46624412B201998C46634499B29C
:1056D8001BB200988342D5DB02988342D2DC891A38
:1056E80009B2CB17CA185A4092B25B46D8171B1892
:1056F80043409BB29A42C5D28B46C3E7044B9B45B5
:1057080003D05B46584200B273E7002071E7C046F9
:10571800FF1F000001000400F0B5DE4657464E4664
:105728004546E0B587B0070000910292019303F067
:10573800E9FB8146002807D1002007B0F0BCBB4632
:10574800B246A946A046F0BD12220021380005F055
:10575800B2F8039008235B426B4403B29A461322C3
:105768000021380005F0A7F804906B46043B03B20B
:105778009846380005F0A9FD06000024364B9B46E4
:1057880025E01822AB5E3A8B0499521A12B23FE018
:10579800AB8A2A8BD21A92B2013212B2D10F8A186E
:1057A80052109B181BB2B88A039A821892B2398B8E
:1057B800091A89B2013109B25046091A4046091A34
:1057C800C80F41184910521812B221E00134B442EE
:1057D80038D2BB681A68A300D5582049280001F0C0
:1057E80036FA0028F2D180214901280001F028FA70
:1057F8000028EBD04B46022BC3D0032BC8D0012B7B
:10580800E4D11422AB5EBA8A03998C46624412B280
:1058180001998C46634499B21BB200988342D5DB48
:1058280002988342D2DC891A09B2CB17CA185A40A7
:1058380092B25B46D8171B1843409BB29A42C5D216
:105848008B46C3E7044B9B4503D05B46584200B2E6
:1058580073E7002071E7C046FF1F00000100040045
:1058680070B582B00400C56A8021280001F0E8F90B
:10587800002821D15D4B5E492000343000930A0096
:1058880010F005FE3422A35E002B01D1584BA386ED
:105898003822A35E002B01D1544B23873622A35E06
:1058A800002B01D1524BE3863A22A35E002B01D193
:1058B8004E4B638702B070BD280003F02CFB022812
:1058C8002FD003283ED0012858D1E98A013109B2E6
:1058D8000023464A2800FFF77BFEE086EA8A013A61
:1058E80012B2002342492800FFF772FE60872800A1
:1058F80003F008FB022846D0032855D001286FD1B1
:105908001423E95E0023394A2800FFF705FFA08623
:105918001423EA5E002336492800FFF7FDFE20879E
:10592800B0E71A23E95E0023304A2800FFF750FE4B
:10593800E0861A23EA5E00232D492800FFF748FE77
:105948006087D4E7EE8A6B8B9B1B9BB201331BB23B
:10595800DA0FD3185B10F618B6B2711C09B200231F
:10596800224A2800FFF734FEE086013E32B20023C7
:105978001F492800FFF72CFE6087B8E71C4BE38619
:105988001A4B6387B3E71823E95E0023174A2800F8
:10599800FFF7C2FEA0861823EA5E002314492800F8
:1059A800FFF7BAFE20876DE7AE8A2B8B9B1B9BB255
:1059B80001331BB2DA0FD3185B10F618B6B2711C9C
:1059C80009B20023094A2800FFF7A6FEA086013E77
:1059D80032B2002306492800FFF79EFE208751E7D0
:1059E800034BA386014B23874CE7C046FF1F0000EB
:1059F80001E0FFFFF0B5DE4657464E464546E0B5A6
:105A08008BB08346FFF736FA03681A7E91469246B2
:105A18005B465C6A1B8B5A46928A9B185A461383CC
:105A2800538BD28A9B185A465383002301930293BF
:105A38000793059320E16E220021380004F03BFF14
:105A480080B245192DB26D220021380004F033FFD1
:105A580000B246433612380005F0F4FB0700002F69
:105A6800E9D15B469B690993002D03D180235B0034
:105A78009E420CD06D422DB2310080204002FAF7D0
:105A8800A1FB020008AB290009A810F0EFFF09AB41
:105A980000215A5ED11752184A4092B202215B5E29
:105AA800D9175B184B409BB29A4233D80123019314
:105AB8001021200001F0C4F8002833D180214900CA
:105AC800200001F0BDF8002802D1029B002B09D16B
